:020000040800F2
:10000000D04F002065020008E5460008E13D0008E9
:10001000E1460008510F00080D55000800000000DF
:100020000000000000000000000000005151000826
:100030003111000800000000214700087551000838
:100040007F0200087F0200087F0200087F0200088C
:100050007F0200087F0200087F0200087F0200087C
:100060007F0200087F0200087F0200087F0200086C
:100070007F0200087F0200087F0200087F0200085C
:100080007F0200087F0200087F0200087F0200084C
:100090007F0200087F0200087F0200087F0200083C
:1000A0007F0200087F0200087F02000861520008FA
:1000B0007F0200087F0200087F0200087F0200081C
:1000C0007F0200087F0200087F0200087F0200080C
:1000D0007F0200087F0200087F0200087F020008FC
:1000E0007F0200087F0200087F0200087F020008EC
:1000F0007F0200087F0200087F0200087F020008DC
:100100007F0200087F0200087F0200087F020008CB
:100110007F0200087F0200086D5200087F0200087D
:100120007F0200087F0200087F0200087F020008AB
:100130007F02000800000000000000007F020008AD
:100140007F0200087F0200087F0200087F0200088B
:100150007F0200087F0200087F0200087F0200087B
:100160007F0200087F0200087F0200087F0200086B
:100170007F0200087F0200087F02000800000000E4
:10018000000000007F0200080000000000000000E6
:100190007F02000800000000000000007F0200084D
:1001A0000000000000000000000000007F020008C6
:1001B0007F0200087F0200087F0200087F0200081B
:1001C0007F02000800F002F800F03CF80AA090E876
:1001D000000C82448344AAF10107DA4501D100F002
:1001E00031F8AFF2090EBAE80F0013F0010F18BF93
:1001F000FB1A43F001031847507E0000707E000098
:10020000103A24BF78C878C1FAD8520724BF30C842
:1002100030C144BF04680C60704700000023002414
:1002200000250026103A28BF78C1FBD8520728BF06
:1002300030C148BF0B6070471FB507F0DCFE1FBD23
:1002400010B510BD00F062F91146FFF7F5FF05F09B
:1002500099F900F080F903B4FFF7F2FF03BC00F056
:1002600083F900000948804709480047FEE7FEE798
:10027000FEE7FEE7FEE7FEE7FEE7FEE7FEE7FEE756
:1002800004480549054A064B7047000045520008DE
:10029000C5010008D0490020D04F0020D04B0020DD
:1002A000D04B002053EA020C00F069802DE9F04B9E
:1002B0004FF00006002B1FBFB3FA83F503FA05F4D5
:1002C00024FA05F65E4012BF1643B2FA82F502FA2E
:1002D00005F4C5F120051EBF22FA05FC44EA0C0412
:1002E000203556EA044C4FEA144418BF641C4FF002
:1002F00000084FF00009904271EB030C39D300293C
:1003000019BFB1FA81F701FA07F6B0FA80F700FADF
:1003100007F6C7F120071EBF20FA07FC46EA0C06C5
:100320002037B6FBF4FCA7EB0507103F07F01F0BC7
:10033000CBF120062CFA06F60CFA0BFB44BFB346B1
:100340000026202FA4BF5E464FF0000B5BEA060C90
:1003500008BF4FF0010B19EB0B0948EB0608ABFB8C
:10036000027C06FB02CC0BFB03CCC01B71EB0C0127
:10037000C1E70B46024641464846BDE8F08B13B53F
:10038000084318BF4FF0FF300146AFF30080BDE8CF
:100390001C407047032A40F2308010F0030C00F03C
:1003A000158011F8013BBCF1020F624498BF11F8AF
:1003B00001CB00F8013B38BF11F8013BA2F1040268
:1003C00098BF00F801CB38BF00F8013B11F00303E0
:1003D00000F06280083AC0F0088051F8043B083A07
:1003E00051F804CBA0E80810F5E7121D5CBF51F8E6
:1003F000043B40F8043BAFF30080D20724BF11F860
:10040000013B11F801CB48BF11F8012B24BF00F8C4
:10041000013B00F801CB48BF00F8012B704702F008
:10042000FF0343EA032242EA024200F002B84FF01F
:10043000000200B5134694469646203922BFA0E834
:100440000C50A0E80C50B1F12001BFF4F7AF090740
:1004500028BFA0E80C5048BF0CC05DF804EB890031
:1004600028BF40F8042B08BF704748BF20F8022B74
:1004700011F0804F18BF00F8012B7047704770478C
:10048000704710B500F03EF8006810BD10B5044686
:1004900000F038F8046010BD10B5203AC0F00B80B1
:1004A000B1E81850A0E81850B1E81850A0E818506A
:1004B000203ABFF4F5AF5FEA027C24BFB1E81850E0
:1004C000A0E8185044BF18C918C0BDE810405FEA42
:1004D000827C24BF51F8043B40F8043B08BF7047BE
:1004E000D20728BF31F8023B48BF11F8012B28BFC3
:1004F00020F8023B48BF00F8012B704700487047C6
:100500001800002000487047180000207546FFF7CB
:10051000F5FFAE4605006946534620F007008546C4
:1005200018B020B5FFF7ACFEBDE820404FF0000644
:100530004FF000074FF000084FF0000BAC46ACE85E
:10054000C009ACE8C009ACE8C009ACE8C00921F0BA
:1005500007018D46704710B50446AFF30080204672
:10056000BDE81040FFF777BE01491820ABBEFEE79B
:1005700026000200704700000146806B036C026C8D
:1005800013F0500F07D0D20648BF00F099BE806B21
:10059000C26C0846104742F40071016401688A6821
:1005A00012F0405F19D1027EBAB9CA6A12F4700F14
:1005B00002D08A68520510D44A6822F020024A60AC
:1005C000016C21F480710164016CC90448BF00F022
:1005D00073BE016C41F00101016400F06DBE0000CA
:1005E000806B40210164416C41F00401416400F0E2
:1005F00067BE0000806B00F061BE000010B542F2E3
:100600000432C4F20102116821F440311160D2F8C1
:1006100000C090E80A4043EA0C03C46813604A68CB
:1006200022F480724A6002694B6843EA02224A60FF
:100630004A6822F040724A604A6842EA0E024A6002
:100640008A6822F400628A608A6822438A60826A29
:100650008B68012423F070638B608B68C0F6007494
:10066000A24202D123F0405208E01A438A608A680D
:1006700022F040528A60C26A8B681A438A608A6894
:1006800022F002028A608A68037E90F8204042EAE3
:1006900043028A604A6884B142F400624A604A6850
:1006A0004EF2000322F460424A60426ACFF6FF73C2
:1006B0004C6803EB4232224301E022F400624A60BC
:1006C000CA6A40F2000C22F47002CA62C36942692D
:1006D000CFF6F07CCC6A0CEB03532343CB628B68E0
:1006E00023F400738B6090F830008B6843EA40205D
:1006F0008860886820F480608860886840EA82208A
:10070000886010BD2DE9F04F85B040F2CC06C2F2F2
:100710000006039030684FF000094FF0FF3A4FF0A9
:10072000010B0DF113075221002201238DF81390C4
:10073000CDE9007BCDF808A001F060FB9DF8130027
:10074000A02832D000250024C4F202052846082142
:10075000002201F059FA4FF47A7001F0E7F82846C8
:100760000821012201F050FA4FF47A7001F0DEF80E
:10077000306801F055FA0A2001F0D8F8306801F02D
:100780006BFA0A2001F0D2F83068522100220123CE
:10079000CDE9007BCDF808A001F030FB0134022C3C
:1007A00003D89DF81300A028D0D1002000F05EFBF4
:1007B000202130688DF812100DF1120852213F22CD
:1007C0000123CDE9008BCDF808A001F021FC1E200B
:1007D00001F0ACF830685221002201238DF813900B
:1007E000CDE9007BCDF808A001F008FB9DF81300CF
:1007F000A02810D04FF0FF34012500BF30685221EF
:1008000000220123CDE90075029401F0F7FA9DF86A
:100810001300A028F2D1322001F088F830680125B9
:100820000DF1110100274FF0FF34CDE900155221E1
:100830003E2201238DF81170029401F0E9FB0A2099
:1008400001F074F8306804A9CDE90015522107229F
:1008500001238DF81070029401F0DAFB3068522108
:100860003F2201238DF81270CDE90085029401F03A
:10087000CFFB0A2001F05AF8039800F0F7FA142091
:1008800001F054F8012005B0BDE8F08F0000000031
:100890002DE9F04F81B02DED088B88B040F2F807BC
:1008A000C2F200070190384600F016F997ED008A71
:1008B00097ED019A28EE080A97ED02AA97ED03BA80
:1008C00010EE100A07F026FB29EE090A069010EE3A
:1008D000100A8A46029107F01DFB2AEE0A0A064614
:1008E000059010EE100A0C46079107F013FB2BEE53
:1008F0000B0A814610EE100A0D4607F00BFB2AEE9C
:100900000B0A28EE091A31EE000A30EE008A9FED3C
:100910006A0B8346884651EC100B3246234607F09B
:100920000FFA4A462B4607F00BFA5A4643465C46F6
:10093000CDF810B04646CDF80C8006F003FF069ABD
:10094000534606F0FFFE06F0CBFE00EE900AB0EE36
:10095000480A06F039FDB0EE408A97ED000A97ED9F
:10096000011A97ED032A97ED023A21EE021A23EEBF
:10097000000A31EE400AB8EE001A20EE010A10EE2D
:10098000100A07F0C7FADDF814B0884607998246C6
:1009900058464A462B4606F0D5FE2246334606F018
:1009A000D1FE069C029E2246334606F0CBFE02464E
:1009B0000B465046414606F06DFF06F091FE00EEF4
:1009C000100A06F06BFCB0EE409A97ED000A97ED26
:1009D000011A97ED022A97ED033A21EE021A23EE4F
:1009E000000A079931EE000A58464A462B4630EE77
:1009F00000AA07F0A5F9DDE9033207F0A1F92246C4
:100A0000334606F09FFE06F06BFE00EE900AB0EE55
:100A10004A0A06F0D9FC18EE100AB0EE40AA07F018
:100A200079FA9FED270B54EC105B2A46234607F01A
:100A300089F806F055FE08EE100A19EE100A07F0C4
:100A400069FA2A46234607F07DF806F049FE09EECA
:100A5000100A1AEE100A07F05DFA2A46234607F03C
:100A600071F806F03DFE9FED181A00EE100AB4EE84
:100A7000C10AF1EE10FA0CDA9FED151A0198B4EEE6
:100A8000C10AF1EE10FABCBF9FED121A30EE010A56
:100A900004E09FED0E1A019830EE010A80ED008A05
:100AA00080ED019A80ED020A08B0BDEC088B01B020
:100AB000BDE8F08F00BF00BF000000000000008014
:100AC000E5BF631ADCA54C40000034430000B4C30A
:100AD000000034C30000B44310B586B0044640F2B1
:100AE000CC000021C2F200000591006804910821A9
:100AF00004AA4FF0FF3CCDE900215221202201231E
:100B0000CDF808C001F07AF9BDF910009FED1A1A6E
:100B100000EE100ABDF91210BDF91420BDF916300F
:100B2000B8EEC00A40F2F80020EE010AC2F200005E
:100B300080ED000A00EE101AB8EEC00A20EE010A9D
:100B400080ED010A00EE102AB8EEC00A20EE010A7C
:100B500080ED020A00EE103AB8EEC00A016820EEFD
:100B6000010A80ED030A2160416861608168A1602B
:100B7000C068E06006B010BD0000803810B586B0D7
:100B80000C4600210528ADF81410049131D8DFE897
:100B900000F003376491BEEB40F2CC00C2F20000DB
:100BA0000068062104AA4FF0FF3CCDE90021522144
:100BB0000E220123CDF808C001F020F9BDF9100084
:100BC000BDF91210BDF9142000EE100A01EE101A42
:100BD00002EE102A9FED803AB8EEC00AB8EEC11AB4
:100BE000B8EEC22A20EE030A21EE031A22EE032AEF
:100BF000E6E09FED770AB0EE401AB0EE402ADFE063
:100C000040F2CC00C2F200000068062104AA4FF0B6
:100C1000FF3CCDE90021522114220123CDF808C068
:100C200001F0ECF8BDF91000BDF91210BDF9142067
:100C300000EE100A01EE101A02EE102A9FED663A3D
:100C4000B8EEC00AB8EEC11AB8EEC22A20EE030A06
:100C500021EE031A22EE032AB2E040F2CC00C2F2E7
:100C600000000068062104AA4FF0FF3CCDE90021F6
:100C700052211A220123CDF808C001F0BFF8BDF9B6
:100C80001000BDF91210BDF9142000EE100A01EE9B
:100C9000101A02EE102A9FED503AB8EEC00AB8EED4
:100CA000C11AB8EEC22A20EE030A21EE031A22EE80
:100CB000032A85E040F2CC00C2F200000068062161
:100CC00004AA4FF0FF3CCDE9002152210822012364
:100CD000CDF808C001F092F8BDF91000BDF912106E
:100CE000BDF9142000EE100A01EE101A02EE102ACF
:100CF0009FED383AB8EEC00AB8EEC11AB8EEC22A73
:100D000080EE030A81EE031A82EE032A58E040F2D5
:100D1000CC00C2F200000068062104AA4FF0FF3C9C
:100D2000CDE90021522128220123CDF808C001F08D
:100D300065F8BDF91000BDF91210BDF9142000EEE0
:100D4000100A01EE101A02EE102A9FED223AB8EEB8
:100D5000C00AB8EEC11AB8EEC22A80EE030A81EECC
:100D6000031A82EE032A2BE040F2CC00C2F200000C
:100D70000068062104AA4FF0FF3CCDE90021522172
:100D80002E220123CDF808C001F038F8BDF910007B
:100D9000BDF91210BDF9142000EE100A01EE101A70
:100DA00002EE102A9FED0B3AB8EEC00AB8EEC11A57
:100DB000B8EEC22A80EE030A81EE031A82EE032AFD
:100DC00084ED000A84ED011A84ED022A06B010BDFC
:100DD000000000000000C8420000803D40F2CC014D
:100DE000C2F2000108607047F0B585B040F2CC0552
:100DF000C2F20005286801260DF113014FF0FF34FF
:100E0000CDE9001652213D220123029400F0F6FFA5
:100E10000020002700F02AF8192000F087FD28683C
:100E20000DF11201CDE900165221072201238DF8A0
:100E30001270029401F0ECF8802128688DF81110EE
:100E40000DF11101CDE9001652213F220123029438
:100E500001F0DEF80A2000F069FD9DF8130000F0B3
:100E600005F8142000F062FD05B0F0BD80B584B037
:100E700040F2CC01C2F2000109688DF80F00012098
:100E80000DF10F024FF0FF3CCDE900200846522142
:100E90003D220123CDF808C001F0BAF81E2000F071
:100EA00045FD04B080BD0000014640F25820C2F26A
:100EB000000002F047B8000080B540F25820C2F2AE
:100EC000000002F051F8043818BF012080BD000076
:100ED00080B500F00DF801281CBF012080BD40F254
:100EE0005820C2F20000BDE8804002F04FB8000078
:100EF00081B001208DF803009DF8030001B0704718
:100F000080B582B09C4613460A46014640F25820FE
:100F1000C2F20000CDF800C002F01EF9002818BF90
:100F2000012002B080BD000080B582B09C4613460F
:100F30000A46014640F25820C2F20000CDF800C037
:100F400002F0FAF9002818BF012002B080BD0000AD
:100F5000FEE70000A4B0062000212190CDE9171182
:100F6000CDE91910522051221690042040F2C808F1
:100F7000CDE91E1120911D92CDE91011CDE912107D
:100F80005322CDE90211CDE904105520C2F2000828
:100F90000F9208220190D8F80000CDE90911CDE99F
:100FA0000B1254228DF888108DF86C108DF85010AB
:100FB00008928DF834108DF8181000F0EBFB40F219
:100FC000081640F21C1A40F2B4344EF6045BC2F22A
:100FD0000006C2F2000AC2F2000401AD07AFCEF271
:100FE000000B4FF0805900BF05F004F9D8F800005D
:100FF00040F2B2021DA9C2F2000223AB00F0A8FA2F
:10100000D8F8000040F2AC0216A9C2F200021CABF4
:1010100000F09EFAD8F800000FA9324615AB00F098
:1010200097FAD8F8000040F2141208A9C2F20002A0
:101030000EAB00F08DFA40F28800C2F2000000888A
:10104000BAF800103080D8F8000071802946224696
:101050003B4600F07DFA05F0F1F8CBF80090BFF3C5
:101060004F8FBFF36F8FBFE740F2C801C2F200019C
:1010700008607047D0F800C06FF00F024AF6AB234B
:1010800052FA8CF2CAF6AA230146A2FB03300009E9
:1010900005A31B5C40F2FF302CEA00005F2A88BFEA
:1010A0000430C1E91603704700061016000610163A
:1010B0008269816AB2F5005F06D06AB9022912D04E
:1010C000012914D0D1B90EE0032917D8DFE801F0C7
:1010D000020B020F0120704703293CBF012070471B
:1010E0001CBF00207047C06AC0F300607047C06A30
:1010F000A0F1C070B0FA80F040097047002070473E
:1011000080B5D0F800C0D0F808E0DCF80000BEF1EF
:10111000400F20F48020CCF800000846CCF80430C2
:1011200004BF10460A46CCF80800CCF80C2080BD5D
:1011300070470000EFF3108072B600BFFEE70000BA
:10114000002200F001B8000080B540F2201EC2F27B
:10115000000E9EF80930002B1CBF012080BD9EF8B8
:101160000930844600200EF803009EF809300EEB8B
:101170008303C3F804C09EF8093073441A729EF8C2
:101180000920531C30328EF809300A7042F63A7248
:10119000A1F80120C87080BD70B581B00022009216
:1011A00090F83C20012A01D1022148E00E6801227A
:1011B0001FFA86FC80F83C204FEA4C0212FA86F3B4
:1011C00002680A2E32BF10321E3B0C324FF0070E5F
:1011D00015680EFA03F4A54315608D68146805FAC6
:1011E00003F3234313604968062906D8026801EB1C
:1011F0008101053902F134030AE00C2901EB810178
:10120000026887BF413902F12C03233902F1300310
:101210001F221C688A4024EA02021A601A680CFA2B
:1012200001F1114342F2043E1960C4F2010E01685B
:10123000AEF54172914205D0002180F83C1008467D
:1012400001B070BD1221112EC1F2000118BF8E42F3
:1012500023D1DEF800208E4222F48002CEF8002056
:10126000DEF8002042F40002CEF80020E4D140F283
:101270000401C2F2000109684DF68362C4F21B3218
:10128000A1FB0212910C01EB810149000091009930
:101290000029D1D000990139F8E7122ECCD1DEF81F
:1012A000001021F40001CEF80010DEF8001041F427
:1012B0008001CEF80010BFE77047000070470000C3
:1012C00070470000B0B510B30446006C30B920463A
:1012D00000F020F80020606484F83C00206C0125B8
:1012E000C0060FD4206C41F2021188430230206402
:1012F0002046FFF783F900206064206C65F301004D
:1013000000252064002084F83C002846B0BD01255B
:101310002846B0BD2DE9F04186B000260596CDE9FE
:101320000366044642F200070068C4F20107B842AF
:101330000296019602D006B0BDE8F08143F6300077
:101340000096C4F20200416901AD41F4807141612F
:1013500041694FF0030801F48071009100990096F3
:10136000016841F004010160016801F0040100918D
:1013700000990096016841F001010160006829466A
:1013800000F00100009000981420019007F56840DB
:10139000CDE9028600F062FBC020CDE9010807F527
:1013A00060402946039600F059FB40F2A41546F22E
:1013B0001040C2F20005C4F202004FF48061C5E99A
:1013C000000605F110004FF480524FF480434FF4B3
:1013D0008077C5E902668EC02846C5E9086600F038
:1013E00007FA002818BFFFF7A5FEA563AC6306B097
:1013F000BDE8F08170B582B004460020019094F8F9
:101400003C00012802D1022002B070BD13460A46FA
:101410000120216884F83C008868C00718D18868DA
:101420004DF6836540F00100886040F20400C2F28E
:1014300000000068C4F21B35A0FB0505A80C00EBFA
:10144000400000BF0190019810B101980138F9E700
:101450008868C00503D5886820F4807088608D682E
:10146000206CED0707D140F010002064606C40F064
:101470000100606469E040F20175A84300F58070E6
:1014800020644868400504D5206C012565F30D30C3
:101490002064256C0020ED044FF0000544BF656C0E
:1014A00025F00605656484F83C00A06B40F2795590
:1014B00040F2F55CC0F60005C0F6000CC0E90F5C18
:1014C00040F2E155C0F60005C5646FF022050D60DD
:1014D0004D6842F2043645F080654D608D68C4F277
:1014E000010645F480758D604C3100F0EDF93168EE
:1014F0002068C906A6F541710AD0884225D14FF669
:101500000451CFF6FF71715811F0405F1DD118E002
:10151000884212D042F20021C4F20101884209D06F
:1015200042F20011C4F2010188420ED13168C906AD
:101530000BD102E03168C90607D4816811F0405F21
:1015400003D1816841F080418160002002B070BD0C
:1015500010B590F820E0D0F800C0AEF1010EBEF159
:10156000010FDCF808E00DD81EF0E05F10D0CEF3DC
:10157000016EBEF1030F11D100F1240101204FF4DF
:10158000000233E000F1240101204FF480222DE01D
:1015900000F1240101204FF4001227E0012000FA9D
:1015A0000EF01860886818B14B6840EAC30001E08B
:1015B00008684005D1E9033403430CEB0E10C0F872
:1015C0008031C0F88441097D012905D100F5C2713F
:1015D0000B6843F480730B605168C0F88C1112687B
:1015E00000F5C071C0F88821002001220B681A4361
:1015F0000A6010BDB0B5C8B1044690F8200010B91B
:10160000204600F077F82068016841F00101016090
:1016100000F000FB054600BF20684168C90707D1FC
:1016200000F0F8FA401B0B28F6D312E00120B0BD01
:10163000016821F00201016000F0ECFA054600BFEC
:101640002068416889070DD500F0E4FA401B0B289B
:10165000F6D3606A052140F400306062012084F80E
:101660002010B0BD217E0268012922F0800308BF4E
:1016700042F080030360617E0268012922F040038A
:1016800008BF42F040030360A17E0268012922F0F6
:10169000200308BF42F020030360E17E02680129B5
:1016A00042F0100308BF22F010030360217F02689C
:1016B000012922F0080308BF42F008030360617F9C
:1016C0000268012922F0040308BF42F0040303600A
:1016D000D4E901C2D4E9033561691A432A431143AD
:1016E000ACF101021143C16100200121606284F864
:1016F0002010B0BD2DE9F04387B0002640F2004431
:10170000CDE90566CDE90366C4F202040068A4F5DC
:10171000D0318842029602D007B0BDE8F08343F68C
:1017200030000196C4F2020001694FF0020841F056
:1017300000710161016902AD01F00071019101992F
:10174000019601684FF0030941F002010160006851
:10175000092700F00200019001984FF48070029078
:101760000120CDF80C80049020462946CDF8149035
:10177000069700F073F94FF40070CDE90208204697
:101780002946CDE90469069700F068F907B0BDE87D
:10179000F0830000B0B5044690F8200001281DD168
:1017A000022084F820002068016821F00101016016
:1017B00000F030FA054600BF20684068C00713D02B
:1017C00000F028FA401B0B28F6D3606A40F4003082
:1017D0006062052084F820000120B0BD606A40F4FA
:1017E000002060620120B0BD00206062B0BD00003A
:1017F0002DE9F041044600F00DFAC4B1054602207F
:1018000084F835000020216884F83400086820F04E
:101810000100086026683068C0070BD000F0FAF9B4
:10182000401B0528F6D903212022032047E0012090
:10183000BDE8F081306848F23F01CFF21001251D6C
:1018400000EA010C2ECDD4E9050E41EA0C0111434A
:1018500019432943D4E90778084340EA0E01606A36
:101860003943042841EA080116D104F128078CCF36
:1018700019433943316056F8141F21F0070140EA3B
:10188000010040EA020573B12046FFF711FC50B198
:1018900001214022012012E0316056F8141F21F08E
:1018A000070141EA000520463560FFF7E3FBE16DE3
:1018B0003F2202FA01F181600022012100206265CD
:1018C00084F83510BDE8F081B0B5044690F83400D6
:1018D000012828D00120A56D84F8340094F8350043
:1018E00001281DD1022084F83500002060652046C3
:1018F000FFF706FCE26D3F23206803FA02F2216C39
:10190000AA60026842F01602026019B1016841F053
:1019100008010160016841F0010101600020B0BDD3
:10192000002084F834000220B0BD0000B0B50446A9
:1019300000F070F9054640F20800C2F2000000789D
:10194000611C18BF044400BF00F064F9401BA042B2
:10195000FAD3B0BD2DE9F04F84B000F13E4202F160
:10196000FF724FEAB22241F6000743F600430192AC
:10197000C4F202070722C4F20103B84208BF0622DC
:10198000009200240122A3F57E7300250027039313
:10199000029125E00268032101FA04F36FF00301CC
:1019A0009A4301EA57010260014405F01C0E0E6AD9
:1019B0000F2202FA0EF226EA02020A62C16801222E
:1019C0009943C160416821EA0C01416081689943F3
:1019D0008160029901370435102F04F102043AD0D6
:1019E00002FA07FC1CEA0109F4D003994FEA9708B0
:1019F00051F828B005F00C0E0F2101FA0EFA0199EA
:101A0000009A062938BF0A460BEA0A0302FA0EF2C8
:101A10009342BFD143F60041C4F201010A680B466C
:101A200022EA09020A604A6822EA09024A6043F689
:101A30000C41C4F201010A6822EA09020A609A68AC
:101A400022EA09029A60039951F8282022EA0A0240
:101A500041F828209EE704B0BDE8F08F2DE9F04F53
:101A600083B000F13E4202F1FF724FEAB22241F62A
:101A700000070192C4F2020707224FF0010E002571
:101A80004FF000084FF00009B84208BF062200924C
:101A90000AE000BF09F1010908F10408B9F1100FCB
:101AA00005F1020500F0AC800C680EFA09FB14EA9F
:101AB0000B0AEFD04C6804F0030CACF1010EBEF140
:101AC000010F17D80322866802FA05F7CA6826EACA
:101AD0000707AA403A4382604268C4F3001722EA2B
:101AE0000B0207FA09F73A434FF0030B42604FF03D
:101AF000010E06E0BCF1030F4FF0010E4FF0030B97
:101B00001BD0C2688E680BFA05F7BA4306FA05F7D0
:101B10003A43BCF1020FC2600FD16FF0030202EA38
:101B20005902024408F01C060F23176A03FA06F450
:101B30000B69A743B3403B43136202684F680BFA3B
:101B400005F39A4307F00303AB401A4317F4403FF1
:101B500002609FD00022029243F64402C4F20202C5
:101B60001346126843F6004442F480421A601A6831
:101B7000C4F2010402F480420292029A29F00302A4
:101B80004FF608432244CFF6FF739B46D35808F024
:101B90000C070F26BE4023EA060C019B009E062B75
:101BA00038BF1E4606FA07F747EA0C0342F80B3027
:101BB000A2684B6842EA0A07DE0258BF22EA0A0717
:101BC00043F60C42A760C4F20102944612689E02DA
:101BD00042EA0A0758BF22EA0A07CCF80070626896
:101BE0009E0342EA0A0758BF22EA0A076760226892
:101BF000DB0342EA0A0358BF22EA0A03236049E7EB
:101C000003B0BDE8F08F0000002A08BF090481611D
:101C10007047000044F6AC00C2F200000068704754
:101C2000002804BF0120704710B50446242084F822
:101C30003D002068016821F001010160204600F0AC
:101C400081FA0020206484F83D00206384F83E007F
:101C500084F83C0010BD0000B0B5B0B3044690F865
:101C60003D0028B9002084F83C00204600F088FAA6
:101C7000242084F83D002068016821F00101016002
:101C8000016841F400410160016821F400410160F4
:101C900000F05CFE48F28041C0F21E0140F60012E6
:101CA00088424FF00001C0F23D02656838BF012153
:101CB000904248F2A1624FF00003C0F2010238BF27
:101CC0000123954238BF0B460BB10120B0BD4DF644
:101CD0008361C4F21B31A0FB011221684FEA924CD0
:101CE0004B6823F03F0343EA92424A600A6A48F293
:101CF000A063C0F201039D4222F03F0313D80CF110
:101D0000010201386D001A43B0FBF5F00A62CA699E
:101D100001304CF6FF736FF31F3022EA030C0428E6
:101D200098BF04203FE04FF496720CFB02FC44F68F
:101D3000D352C1F26202ACFB022C012202EB9C12D4
:101D40001A430A62CA69A3684CF6FF7C22EA0C0CAB
:101D5000A0F1010E9BB119206843BEFBF0F00422F4
:101D6000013062F31F30000512D09BB11920684387
:101D7000BEFBF0F00422013062F31F3011E005EBEE
:101D80004500BEFBF0F001306FF31F300005ECD1D1
:101D9000012008E005EB4500BEFBF0F001306FF3D9
:101DA0001F3040F4004040EA0C00C8610868D4E9E4
:101DB000072320F0C000104318430860886848F2E9
:101DC000FF3204F10C0C90439CE82C101843104394
:101DD0008860C86820F0FF00284340EA0C00C86013
:101DE000086840F00100086000202021206484F889
:101DF0003D10206384F83E00B0BD00002DE9F043A3
:101E000083B01F4616460D460446FFF703FF94F8BD
:101E10003D1020290FD102218146C0F21001204639
:101E200001221923CDF8009002F00AF918B994F8AC
:101E30003C00012803D1022003B0BDE8F08301215A
:101E4000226884F83C101368DDE90B080A99DB0767
:101E500003D1136843F001031360136823F4006394
:101E60001360222284F83D20402284F83E20002284
:101E7000226461626085608D294620850020CFF64E
:101E8000FF70E062204632463B46CDF80080CDF838
:101E9000049001F0BFFF18B1012003B0BDE8F0834A
:101EA000208D022806D0012810D000BB002002900F
:101EB000206812E02068016821F4806101600168F7
:101EC00041F4006101600021029113E02068016883
:101ED00021F48061016000210291416902918169D0
:101EE00002910299016841F40071016007E000204D
:101EF0000290206841690291806902900298208DC9
:101F0000002879D00427C0F201070CE009690170AC
:101F1000606A218D01306062481E2085618D013923
:101F20006185010468D085B22046032D0CD8012DAF
:101F300025D141464A4602F00FF90028ACD120686D
:101F4000616A00690870E3E741464A4602F004F915
:101F50000028A1D12068616A00690870606A228D3A
:101F60000130013A216860622285628D013A628502
:101F70004A695207CAD4208D0104D4D13CE03946C5
:101F800000224346CDF8009002F05AF8022D1BD0F3
:101F900000287FF481AF2068616A0268434622F41A
:101FA00080620260006900220870606A218D013041
:101FB0006062481E2085608D394601386085204664
:101FC000CDF8009002F03CF800287FF465AF20685F
:101FD000616A026842F40072026000690870606A17
:101FE000411C6162218D226801392185618D013991
:101FF0006185116941708BE7202084F83D00002045
:1020000084F83E0084F83C0003B0BDE8F083000093
:102010002DE9F04383B0994616460F460446FFF774
:10202000F9FD94F83D1020290ED102210546C0F299
:102030001001204601221923009502F001F818B979
:1020400094F83C00012803D1022003B0BDE8F083DE
:102050000121226884F83C101368DDE90B080A9915
:10206000DB0703D1136843F001031360136823F403
:1020700000631360212284F83D20402284F83E2032
:102080000022226461626085608D394620850020CF
:10209000CFF6FF70E062204632464B46CDF8008016
:1020A000019501F03DFF18B1012003B0BDE8F083B8
:1020B000208D58B927E0437802300B616062901E92
:1020C0002085618D0139618500041CD02046414680
:1020D0002A4602F071F8E0B9606A2168034613F8F5
:1020E000012B0A61228D6362571E2785638D3F0491
:1020F000A3F1010363854B6918BF13F00403DAD120
:10210000208D0004E2D1204641462A4601F068FFB6
:1021100040B1206C0428C7D12068016841F40071E7
:102120000160C1E72068016841F40071016020206E
:1021300084F83D00002084F83E0084F83C0003B0A1
:10214000BDE8F08310B540F20044C4F20204006818
:10215000A4F5D831884218BF10BD43F64000C4F240
:102160000200016821F40011016020464021FFF7C0
:10217000F1FB20468021BDE81040FFF7EBBB0000DB
:10218000B0B586B000240594CDE9034445F2004182
:102190000068C4F2000188420294019401D006B0A4
:1021A000B0BD43F630050094C4F20205286840F043
:1021B00002002860286800F0020000900098C0200B
:1021C00001901220CDE90204032004900420059020
:1021D00001F5D83001A9FFF741FC0094286940F4CB
:1021E00000102861286900F400100090009806B0E3
:1021F000B0BD000040F2080044F6AC01C2F200009D
:10220000C2F2000100780A681044086070470000BC
:1022100080B543F60040C4F20200016841F4007149
:102220000160016841F480610160016841F48071DE
:102230000160032000F098F80F2000F005F800F08E
:102240004BF8002080BD000010B586B00146362056
:102250000022002400F078F8362000F073F843F6EE
:1022600040000194C4F20200016841F010010160D5
:102270000068694600F010000190019801A800F084
:102280003FFB00F063FB4DF683614000C4F21B315D
:10229000A0FB01014FF0FF3000EB914140F26C30A8
:1022A00041F20002C2F20000C4F2000240F2E73341
:1022B000C0E90021C0E90243046101F07FF910B1D7
:1022C000012006B010BD40F26C30C2F2000001F0F7
:1022D000A5F906B010BD000080B582B0002043F61D
:1022E00040010190C4F202014A6842F480424A600F
:1022F0004A6802F480420192019A00900868002224
:1023000040F0805008600868022100F08050009082
:1023100000986FF00B0000F017F86FF00A00012131
:10232000002200F011F86FF009000121002200F0F6
:102330000BF86FF003000221002202B0BDE88040DC
:1023400000F002B803F0E4B870B514460D46064636
:1023500003F0EEF82946224602F0C6F9014630465F
:10236000BDE8704003F0ECB803F0FCB82DE9F04391
:1023700081B00446006843F68C06C107C4F2020629
:1023800004D14FF0000981070CD415E03168A26B2D
:1023900021F0C06111433160B2FA82F14FEA511964
:1023A000810709D53168E26B21F0C05111433160DA
:1023B000002A08BF4FF00109410704D44FF000087C
:1023C000010711D41FE03168226B21F44011114341
:1023D0003160B2FA82F14FEA5118B2F5801F08BF9E
:1023E0004FF0010901070ED53168626B21F44001FD
:1023F0001143B2F5800F316008BF4FF00109002A88
:1024000008BF4FF00108800667D50020009056F8FD
:102410004C0C47F2000740F0805046F84C0C56F840
:102420004C0CC4F2000700F080500090009838680F
:1024300040F480703860FFF7EDFB05463868C00552
:1024400005D4FFF7E7FB401B0228F7D94FE156F808
:102450001C0C10F4407027D0216C01F440718842AC
:1024600022D056F81C0C40F64061C4F247210122EC
:1024700020F440700A6000220A6046F81C0C56F8EE
:102480001C0CC00710D0FFF7C5FB054641F288378A
:1024900056F81C0C800707D4FFF7BCFB401BB84262
:1024A0004FF00300F4D971E1206C56F8841C4FF60C
:1024B000FF4300F4407221F4F811C0F6FF730340AB
:1024C000B2F5407F08BF194346F8841C56F81C1C1F
:1024D0006FF31F30084346F81C0C2068C10611D466
:1024E00001061AD4410620D4C10526D4810531D471
:1024F000410537D4B9F1000F44D1B0F5006F40F079
:10250000E1803FE094F8580040F64061C4F2472172
:10251000C1F8A00320680106E4D5B168E26C21F49B
:1025200040011143B1604106DED5B168A26C21F0D3
:1025300080611143B160C105D8D5B168626D21F0E9
:1025400000611143B160B2F1006F08BF4FF00108A4
:102550008105CDD5B168626C21F080511143B16025
:102560004105C7D5B268216D22F000520A43B0F58B
:10257000006FB26006D0B9F1000F03D1B1F1005F76
:1025800040F0A08040F26809C4F247290020C9F851
:102590000000FFF73FFB054656F88C0C000105D5FF
:1025A000FFF738FB401B0228F6D9A0E02068C107DE
:1025B00001D0A16B31B1810701D5E16B11B14107A8
:1025C00015D418E056F8081C56F8082CD4E9013543
:1025D00001F4403102F0706219436769114341EA26
:1025E000851141EA077146F8081C410703D5216BA4
:1025F000B1F5801F05D001071FD5616BB1F5800FC4
:102600001BD156F8081C56F8082CD4E9013701F400
:10261000403102F0E04219432569114341EA871134
:1026200041EA0561D4F828C046F8081C3168ACF1CD
:10263000010221F01F011143316041051FD5216DB9
:10264000B1F1005F1BD1271D56F808CC56F8082CB5
:10265000A8CFFF034FF6FF7127EA01014FF0C067D3
:1026600002F0E04207EA4C2707F100771A433A43A9
:10267000A1F5803142EA8512114346F8081C000595
:1026800010D5271D8FCF40EA8110D1034FF6FF727E
:102690009143A1F5803140EA0360084340EA0770A6
:1026A00046F8080C0120C9F80000FFF7B3FA054608
:1026B00056F88C0C000105D4FFF7ACFA401B022839
:1026C000F6D914E0B8F1000F4FF000005ED0682793
:1026D000C4F24727B860FFF79DFA054656F88C0C00
:1026E000800008D5FFF796FA401B0228F6D9032090
:1026F00001B0BDE8F0832068410701D5216B19B115
:1027000001071AD5616BC1B956F8041CD4E9062338
:1027100001F44031656A114341EA831141EA0561E0
:10272000D4F82CC046F8041C31686FF0FF0221F485
:10273000F85102EB0C2211433160C00516D5606DD3
:10274000B0F1006F12D156F8040C226AD4E90613D6
:1027500000F07060D2034FF6FF75AA430843A2F55C
:10276000803240EA8310104346F8040C0120B86020
:10277000FFF750FA044600BF56F88C0C800008D4CE
:10278000FFF748FA001B0328F6D3032001B0BDE889
:10279000F083002001B0BDE8F08300002DE9F04196
:1027A000002800F0A98043F60808C4F20208044695
:1027B000D8F8F8030D4600F00F00884208D288F8D8
:1027C000F853D8F8F80300F00F00A84240F09480C6
:1027D0002068810717D5410705D5D8F8001041F4C6
:1027E000E051C8F80010010705D5D8F8001041F4F1
:1027F0006041C8F80010D8F80010A26821F0F0017C
:102800001143C8F80010C00736D06068811E022945
:1028100007D258F8081C89015CBF0120BDE8F0818F
:102820000DE0012807D158F8081C89035CBF01207E
:10283000BDE8F08103E058F8081C89075CD5D8F89A
:10284000001021F003010843C8F80000FFF7E2F987
:10285000064641F2883700BFD8F80000616800F0F2
:102860000C00B0EB810F07D0FFF7D4F9801BB84202
:10287000F2D90320BDE8F081D8F8F80300F00F008A
:10288000A84207D988F8F853D8F8F80300F00F00E9
:10289000A84231D12068410707D5D8F80010E26876
:1028A00021F4E0511143C8F80010000708D5D8F80A
:1028B0000000216920F4604040EAC100C8F800002F
:1028C00000F068F8D8F8001048F21A02C1F30311BA
:1028D000C0F60002515C40F2040220FA01F140F21D
:1028E0000C00C2F200000068C2F200021160FFF7A3
:1028F000ABFC0020BDE8F0810120BDE8F0810000C4
:102900000F22026043F60802C4F20202136803F0C9
:1029100003034360136803F0F0038360136803F458
:10292000E053C360D2F800C04FF4E05303EADC0385
:102930000361D2F8F80300F00F0008607047000050
:1029400040F20400C2F200000068704780B5FFF753
:10295000F7FF43F60801C4F20201096848F22A02AF
:10296000C1F38221C0F60002515CC84080BD000066
:1029700080B5FFF7E5FF43F60801C4F202010968DC
:1029800048F22A02C1F34231C0F60002515CC8404D
:1029900080BD000010B543F60404C4F20204606870
:1029A000C0F3810142F20040C0F2F400DFE801F020
:1029B0004102071641F20020C0F27A0010BD2168E2
:1029C00001F03F02216823684902C3F3881114D43F
:1029D000A1FB00010023FDF765FC15E0216801F073
:1029E0003F02216823684902C3F3881115D4A1FB73
:1029F00000010023FDF756FC16E041F20020C0F272
:102A00007A004843B0FBF2F021680222C1F3014191
:102A100002EB4101B0FBF1F010BD41F20020C0F229
:102A20007A004843B0FBF2F02168C1F30271B0FBB9
:102A3000F1F010BD2DE9F04182B0002800F0DF80F8
:102A40000446007843F60006C007C4F2020637D0F9
:102A5000B06800F00C0004282BD0B06800F00C0027
:102A6000082802D17068400223D4B06800F00C003E
:102A70000C2802D1706840021BD46568B5F5803F10
:102A800007D03068B5F5A02F40F05E8140F480207B
:102A90003060306840F480303060FFF7BBF80546A6
:102AA000306880030CD4FFF7B5F8401B6428F7D9D1
:102AB000EEE03068800303D56068002800F09F8056
:102AC000207880073AD5B06810F00C0F0FD0B068AE
:102AD00000F00C00082802D17068400207D5B068E9
:102AE00000F00C000C280AD17068400207D430684E
:102AF00080071CD5E068012840F0818017E0E0687D
:102B0000002800F0EA800020C4F247200121016083
:102B1000FFF780F8054600BF3068800707D4FFF74D
:102B200079F8401B02284FF00300F5D94AE13068DC
:102B3000216920F0F80040EAC100306020780007E9
:102B400025D56069002840F20000C4F247200ED06D
:102B50000121C0F8801EFFF75DF80546706F800701
:102B600015D4FFF757F8401B0228F7D990E0002151
:102B7000C0F8801EFFF74EF8054600BF706F800753
:102B800005D5FFF747F8401B0228F7D980E02078E9
:102B9000400738D4A569002D00F01381B06800F01B
:102BA0000C00082878D1012D29D07068E16900F463
:102BB00080028A4223D1216A00F03F028A421ED15C
:102BC00047F6C071626A0140B1EB821F17D1A16A5A
:102BD0004FF6FF73C903994300F44032A1F58031E9
:102BE0008A420CD1E16A00F07062B2EB016F06D14B
:102BF000216B00F0E040B0EB017F00F0E2800120AB
:102C000002B0BDE8F081306C4FF00008C0000CD479
:102C1000CDF80480306C4FF0010840F080503064F3
:102C2000306C00F080500190019847F20007C4F228
:102C300000073868C00510D4386840F480703860E8
:102C4000FEF7E8FF054600BF3868C00505D4FEF76B
:102C5000E1FF401B0228F7D91AE0A568012D05D035
:102C6000306F052D4ED140F004003067306F40F0DA
:102C700001003067FEF7CEFF054641F2883700BFFE
:102C8000306F800757D4FEF7C5FF401BB842F7D915
:102C9000032002B0BDE8F0810027C4F247270020DE
:102CA0003866FEF7B7FF022D05460BD1306880016C
:102CB00063D5FEF7AFFF401B02284FF00300F5D9A4
:102CC00080E000BF306880017BD5FEF7A3FF401B8A
:102CD00002284FF00300F5D974E00020C4F2472029
:102CE00000210160FEF796FF054600BF30688007AF
:102CF0007FF524AFFEF78EFF401B02284FF0030044
:102D0000F4D95FE020F001003067306F20F004005C
:102D10003067FEF77FFF002D0546AED141F28837C0
:102D2000306F800707D5FEF775FF401BB8424FF0A4
:102D30000300F5D946E0B8F1000F3FF42BAF306C3B
:102D400020F08050306425E720F480303060306817
:102D500020F480203060FEF75DFF002D05467FF4F3
:102D60009FAE06E0FEF756FF401B64284FF00300BD
:102D700028D830688003F5D4A2E604F11C052FCDD5
:102D8000246B084340EA8210D9034FF6FF72914347
:102D9000A1F5803140EA0560084340EA04707060A4
:102DA00001203866FEF736FF044600BF3068800118
:102DB00007D4FEF72FFF001B02284FF00300F5D9C0
:102DC00000E0002002B0BDE8F081000080B5D0E94D
:102DD000193ED0F844C09A0F0A70C3F383624A7058
:102DE000C3F301628A701A0CCA701A0A0A714FEA98
:102DF0001E524B71CA80CEF303420A72CEF3C03228
:102E00004A72CEF380328A72CEF34032CA72CEF367
:102E100000320A730022BCF1010F4A732DD0BCF1BD
:102E2000000F40F0808040F6FC72C36E02EA8E0212
:102E300042EA93720A61C26EC2F3C2630B75C2F3B7
:102E400002634B75C2F342538B75C2F38243CB7559
:102E5000C2F3C2320A760A690B7E013203F007031D
:102E600002339A4042650B7A03F00F0C012303FAF8
:102E70000CF383655B0A5A430FE0B0F86E200EF046
:102E80003F0342EA03420A610A694FF4806303EB9D
:102E900082224FF40073C0E91523C2654FF400721B
:102EA0000266D0E91B20C2F380334B76C2F3C6130F
:102EB00002F07F028B76CA76C20F0A77C0F34172A6
:102EC0004A77C0F382628A77C0F38352CA77C0F32D
:102ED000405281F82020002281F82120C0F30043D5
:102EE00081F82230C0F3C03381F82330C0F380333F
:102EF00081F82430C0F3403381F82530C0F300332B
:102F000081F82630C0F3812381F82730C0F30123F4
:102F1000C0B2400881F8283081F82900012081F8EA
:102F20002A00104680BD016840F2FF52C0F2400204
:102F30008A63816B012241F08051816380F83420E3
:102F4000104680BD80B500F1440E9EE80C5081E82B
:102F50000C10426DC1E903E2D0E91623C1E9052353
:102F6000026E0020CA6180BD10B582B00446002008
:102F7000019001A9204602F06DF810B1A16B084341
:102F8000A0630198C0F3432002B010BD10B5D0B1CA
:102F9000044690F8340020B900202077204600F045
:102FA0005FF8032084F83400204600F00FF8002872
:102FB0004FF0010018BF10BD0021A163216384F808
:102FC0003400002010BD012010BD0000F0B583B01A
:102FD0000446006876210026029100210022002389
:102FE0000096019601F0EEFB4FF00105A8BB48F2F8
:102FF000A007C4F225273E60206801F0F9FB0220FB
:103000003D60FEF793FC204601F0CCFF30B1012576
:1030100084F83450A16B0843A0631EE0204601F001
:1030200043FF30B1012584F83450A16B0843A063FD
:1030300013E020684FF4007101F036FC60B12168A4
:1030400040F2FF52C0F240028A63A16B012508439F
:10305000A06384F8345000E00025284603B0F0BD9A
:103060002DE9F0479EB0044642F60049002602A82A
:103070005C21C4F201091D96CDE91B66CDE91966F4
:10308000FDF7D5F92068484502D01EB0BDE8F087AD
:103090004FF44070029002A817961396FFF766F956
:1030A000002818BFFEF746F8002643F630000196C8
:1030B000C4F20200416919AC41F400614161416907
:1030C0004FF0040801F40061019101990196016833
:1030D0004FF0020A41F0020101600168032501F08E
:1030E000020101910199019601680C2741F0040148
:1030F0000160016801F004010191019901960168E4
:1031000041F0080101600068214600F008000190CC
:10311000019809F55840CDF86480CDE91AA61C95B0
:103120001D97FEF79BFC4FF48070CDE9190A09F555
:103130005C402146CDE91B651D97FEF78FFC09F524
:1031400060402146CDE9198ACDE91B651D97FEF740
:1031500085FC1EB0BDE8F0872DE9F04786B09A46A1
:1031600015460E460446FEF755FD7EB1804694F89E
:10317000340001280ED10021A163E06D0AEB0502A5
:1031800082420FD9A06B40F0007006E0A06B40F0C7
:10319000006002E0A06B40F00050A063012006B088
:1031A000BDE8F087032084F83400626C2068012AAF
:1031B0004FF0FF32C16218BF6D0200924FEA4A22FF
:1031C000019290224FF002090292CDE9039101276A
:1031D0006946059701F0D6FABAF1020F07D3C4F891
:1031E00030902068294601F0A9FB30B916E027632A
:1031F0002068294601F0BCFB80B1216840F2FF52F3
:10320000C0F240028A63A16B0843A0630120002141
:1032100084F83400216306B0BDE8F087DDF838900B
:10322000019D05E0FEF7F6FCA0EB080048454AD2F8
:103230002068426B416B12F4957F11D1002D18BFAD
:1032400011F40040EED0043E082700BF206801F0D2
:10325000D5FA013F46F8040FF8D1203D0436E1E7E6
:10326000BAF1020F09D311F4807106D0616C032901
:1032700003D001F015FC0028BFD12068416B09077D
:1032800034D4416B89073AD4416B890640D4206815
:10329000002D416B18BF11F4001142D001F0AEFABD
:1032A00046F8040B043DFEF7B5FCA0EB08004845CA
:1032B000EDD3206840F2FF51C0F240018163A06B62
:1032C00040F00040A1E7206840F2FF51C0F2400109
:1032D0008163A06B40F00040A063012084F83400BB
:1032E00000202063032006B0BDE8F08740F2FF51C4
:1032F000C0F240018163A06B40F0080085E740F216
:10330000FF51C0F240018163A06B40F002007CE7F6
:1033100040F2FF51C0F240018163A06B40F02000F9
:1033200073E740F23A518163012084F834000020B1
:1033300006B0BDE8F08700002DE9F04F87B0984651
:1033400015460F460446FEF765FC7FB1824694F8A9
:10335000340001280ED10021A163E06D08EB0502C5
:1033600082420FD9A06B40F0007006E0A06B40F0E5
:10337000006002E0A06B40F00050A063012007B0A5
:10338000BDE8F08F032084F83400626C2068012AC5
:103390004FF0FF32C16218BF6D0201924FEA48221E
:1033A00002929022CDE9032105910121069101A904
:1033B00001F0E8F9B8F1020F07D32020206320685C
:1033C000294601F089FB38B917E0102020632068F6
:1033D000294601F09BFB80B1216840F2FF52C0F208
:1033E00040028A63A16B0843A0630120002184F896
:1033F0003400216307B0BDE8F08FDDF84090DDF8C0
:1034000008B06D4606E000BFFEF704FCA0EB0A0022
:10341000484547D22068426B416B12F48D7F20D122
:10342000BBF1000F18BF11F48040EDD0043F082617
:1034300017F8040F0090797840EA01200090B978DD
:1034400040EA01400090F97840EA0161206800916B
:10345000294601F0EDF9013EEAD1ABF1200B04372A
:10346000D2E7B8F1020F09D311F4807106D0616C74
:10347000032903D001F014FB0028ADD12068416B73
:10348000090720D4416B890726D4416BC9062CD487
:1034900040F23A518163012084F83400002007B0E3
:1034A000BDE8F08F206840F2FF51C0F24001816317
:1034B000A06BA063012084F8340000202063032067
:1034C00007B0BDE8F08F40F2FF51C0F240018163C8
:1034D000A06B40F0080087E740F2FF51C0F24001C6
:1034E0008163A06B40F002007EE740F2FF51C0F222
:1034F00040018163A06B40F0100075E77047000049
:103500007047000010B590F83C20012A4FF00202ED
:1035100052D0012380F83C3080F83D200268D2F878
:1035200004E0D2F808C00C682EF07003234341F287
:10353000FF74C4F20004A24253600BDC40F2FF733C
:10354000C4F200039A4213DCB2F1804F29D040F25A
:10355000004315E040F2FF33C4F201039A4214DC49
:1035600041F60003C4F200039A421AD0002314E08B
:1035700040F60003C4F200039A4212D040F6004322
:10358000C4F200039A420CD010E044F20003C4F2EB
:1035900001039A4205D040F20043C4F201039A426B
:1035A00004D149682CF08003194391600121002265
:1035B00080F83D1080F83C20104610BD002804BF64
:1035C0000120704710B5044690F83D0028B900204E
:1035D00084F83C00204600F01FF8022084F83D00EB
:1035E0002068211D01F048FE012084F8460084F87F
:1035F0003E0084F83F0084F8400084F8410084F8DD
:10360000420084F8430084F8440084F8450084F8BC
:103610003D00002010BD00007047000090F83D10F4
:1036200001291CBF01207047022180F83D1000686D
:1036300041F2FF72C168C4F20002904241F0010100
:10364000C1600FDC40F2FF71C4F20001884217DC58
:10365000B0F1804F2DD040F20041C4F20001884209
:1036600027D02DE040F2FF31C4F20101884214DC82
:1036700041F60001C4F2000188421AD0002114E092
:1036800040F60001C4F20001884212D040F6004129
:10369000C4F2000188420CD012E044F20001C4F2EE
:1036A0000101884205D040F20041C4F20101884284
:1036B00006D1816801F00701062904BF0020704788
:1036C000016841F00101016000207047002804BF3B
:1036D000012070472DE9F047044690F83D000D4663
:1036E00028B9002084F83C00204600F049F8022068
:1036F00084F83D00206844F20702816891438160AC
:10370000211D01F0B9FD20684FF6FF7881688269BC
:10371000D0F820C0D5E9003ED5E9026A43EA0109A4
:10372000AB6922EA080246EA03234FF6FC46B3439C
:10373000D5E9076742EA0A0229691A4342EA0622E2
:1037400042EA01112CF0AA026B6942EA0E0241EA38
:10375000073142EA0312C0F8089081610262012039
:1037600084F8460084F83E0084F83F0084F8420064
:1037700084F8430084F83D000020BDE8F087000095
:1037800080B586B000210591CDE903110068029152
:10379000B0F1804F019101D006B080BD43F63000FA
:1037A0000091C4F20200026942F001020261026962
:1037B00002F001020092009A0091026842F00102B8
:1037C0000260006800F00100009000980320019062
:1037D000022002900120CDE9030105900020C4F2EF
:1037E000020001A9FEF73AF906B080BDF0B583B03A
:1037F0000446FFF7BDF841F6F1118000C0F27651A2
:10380000A0FB01010020029040F20C10C2F2000067
:1038100000680D0A02AF002100220023009703F088
:103820002FFA207F01284ED140F2F406C2F20006A2
:10383000307801280ED0002840F0E5802046002195
:1038400000F0B2FA40F2D001C2F20001086001209B
:10385000307037E02046002100F0A6FA40F2D00197
:10386000C2F20001096840F2E00240F29C07C2F295
:1038700000028842C2F20007106002D9401A386084
:1038800008E005D2401A41F270710844386001E046
:10389000FDF750FC386840F22C11B5FBF0F0C2F295
:1038A00000018008088002980021317050B14EF666
:1038B0000450CEF200004FF080510160BFF34F8FF3
:1038C000BFF36F8F207F02284CD140F2F506C2F281
:1038D0000006307801280DD0002843D1204604216D
:1038E00000F062FA40F2D401C2F200010860012047
:1038F000307037E02046042100F056FA40F2D4013F
:10390000C2F20001096840F2E40240F2A007C2F2EC
:1039100000028842C2F20007106002D9401A3860E3
:1039200008E005D2401A41F270710844386001E0A5
:10393000FDF700FC386840F22E11B5FBF0F0C2F242
:1039400000018008088002980021317050B14EF6C5
:103950000450CEF200004FF080510160BFF34F8F52
:10396000BFF36F8F207F04284ED140F2F606C2F2DB
:103970000006307801280ED0002840F095802046BF
:10398000082100F011FA40F2D801C2F200010860EB
:103990000120307037E02046082100F005FA40F29F
:1039A000D801C2F20001096840F2E80240F2A4071F
:1039B000C2F200028842C2F20007106002D9401A27
:1039C000386008E005D2401A41F27071084438604E
:1039D00001E0FDF7AFFB386840F23011B5FBF0F0C5
:1039E000C2F200018008088002980021317050B1B5
:1039F0004EF60450CEF200004FF080510160BFF34C
:103A00004F8FBFF36F8F207F08284DD140F2F7060C
:103A1000C2F20006307801280ED0002844D120469A
:103A20000C2100F0C1F940F2DC01C2F20001086093
:103A30000120307003B0F0BD20460C2100F0B4F935
:103A400040F2DC01C2F20001096840F2EC0240F2EF
:103A5000A804C2F200028842C2F20004106002D937
:103A6000401A206008E005D2401A41F27071084403
:103A7000206001E0FDF75EFB206840F23211B5FBEB
:103A8000F0F0C2F200018008088002980021317035
:103A900050B14EF60450CEF200004FF0805101605C
:103AA000BFF34F8FBFF36F8F03B0F0BDB0B50446C7
:103AB00090F83C00012804BF0220B0BD0D464FEA3B
:103AC000B2010120032984F83C0037D8DFE801F077
:103AD000020C16242068D5E90012EB6801F05EFCA8
:103AE000206850F8181F12E02068D5E90012EB6832
:103AF00001F0A8FC206850F8181F16E02068D5E9EE
:103B00000012EB6801F0BCFC206850F81C1F21F08B
:103B10000C010160A9680DE02068D5E90012EB688E
:103B200001F0C8FC206850F81C1F21F440610160BE
:103B3000A96809020268114301600020002184F88D
:103B40003C10B0BD002804BF0120704710B50446EA
:103B500090F83D0028B9002084F83C00204600F091
:103B60001FF8022084F83D002068211D01F084FB2D
:103B7000012084F8460084F83E0084F83F0084F871
:103B8000400084F8410084F8420084F8430084F83F
:103B9000440084F8450084F83D00002010BD00007A
:103BA00080B586B000220592CDE90322002100688D
:103BB000C4F2010188420292019201D006B080BD98
:103BC00043F630000092C4F20200436943F001035F
:103BD0004361436903F001030093009B0092036873
:103BE00043F001030360006800F0010000900098BA
:103BF0004FF4706001900220CDE90202012004928E
:103C0000059001F5803001A9FDF728FF1B200B214D
:103C10000022FEF799FB1B20FEF794FB06B080BD47
:103C200010B5044600680169890744BFC1685FEAAE
:103C300081713FD420680169490744BFC1685FEAC8
:103C4000417143D420680169090744BFC1685FEA34
:103C5000017148D420680169C90644BFC1685FEAA0
:103C6000C1614CD420680169C9071CBFC1685FEA03
:103C7000C17151D120680169090644BFC1685FEA7A
:103C8000016150D420680169490644BFC1685FEAF8
:103C900041614FD421680869800646BFC8685FEA61
:103CA000806010BD6FF0200220460A61BDE8104020
:103CB000FFF726BC6FF002010161012121778069C5
:103CC00080073ED02046FFF791FD40E06FF00401F1
:103CD000016102212177806910F4407F3AD02046AB
:103CE000FFF784FD3CE06FF00801016104212177BA
:103CF000C069800737D02046FFF778FD39E06FF0C4
:103D00001001016108212177C06910F4407F33D090
:103D10002046FFF76BFD35E06FF0010101612046A1
:103D200000F038F8A6E76FF0800101612046FFF748
:103D3000E5FBA7E76FF040010161204600F04EF877
:103D4000A8E7204600F022F8204600F021F80020E5
:103D500020776FE7204600F019F8204600F018F8A9
:103D6000002020776EE7204600F010F8204600F093
:103D70000FF8002020776DE7204600F007F8204676
:103D800000F006F8002020776CE700007047000084
:103D900070470000006841F20001C4F2000188424F
:103DA00008BFFEF727BA70474FEAB101032984BF65
:103DB00000207047DFE801F0020E060A0068343088
:103DC0000068704700683C30006870470068403009
:103DD000006870470068383000687047704700001E
:103DE000FEE700000268516949054FF000010FD558
:103DF0006FF4806353612022016380F83D2080F8D6
:103E00003E10026C42F00402026480F83C10012172
:103E1000084670472DE9F04782B0044600680E4618
:103E20000168DDF828A041F4806101600168DDF8D7
:103E30002C9041F480711D461746016020464FF0DA
:103E4000011100225346CDF8009000F0F9F850B16E
:103E500020680068C00544BF4FF400702064032050
:103E600002B0BDE8F08740F202082068C0F2010805
:103E700006F0FE0606612046414652464B4600F0DB
:103E80001FF948BB0020019020684A464169019112
:103E90008069514601900198204600F08DF998B94B
:103EA000012D08D02068390A0161204651464A4652
:103EB00000F082F940B92068F9B20161204651460C
:103EC0004A4600F079F958B1206C042804D12068E2
:103ED000016841F400710160012002B0BDE8F08783
:103EE000206800220168534641F480710160204639
:103EF0004FF00111CDF8009000F0A2F80028A7D1F2
:103F0000206846F0010101612046414652464B4679
:103F100000F0D6F8002818BF012002B0BDE8F087F5
:103F20002DE9F04383B0044600680D4601680A9FFE
:103F30000B9E41F4807199469046016020464FF0F7
:103F4000011100223B46009600F07AF850B120683B
:103F50000068C00544BF4FF400702064032003B024
:103F6000BDE8F083206805F0FE0101610221C0F286
:103F7000010120463A46334600F0A2F818B101206C
:103F800003B0BDE8F083002002902068324641690A
:103F900002918069394602900298204600F00CF99F
:103FA00040B1206C0428EAD12068016841F4007116
:103FB0000160E4E7B9F1010F0AD020684FEA182147
:103FC000016120463946324600F0F6F80028E8D173
:103FD00020685FFA88F10161002003B0BDE8F0833A
:103FE000F0B581B0044600684069400724D4154606
:103FF0000E464F1C04E000BF2068406940071BD4F8
:104000002046FFF7EFFEA0B9002FF5D0FDF702FE26
:1040100016B1401BB042EFD900202021206384F864
:104020003D1084F83E00216C41F02001216484F8A9
:104030003C00012001B0F0BD002001B0F0BD000047
:104040002DE9F047DDF820809A461646814601F4B6
:104050007F078CB25D1C00BFD9F800001821B7F5AE
:10406000803F08BF14214058224608BF2246104016
:10407000801AB0FA80F04009B0421DD1002DEBD07B
:10408000FDF7C8FDBAF1000F03D0A0EB08005045C2
:10409000E2D900202021C9F8300089F83D1089F8C4
:1040A0003E00D9F8401041F02001C9F8401089F8CD
:1040B0003C000120BDE8F0870020BDE8F08700004B
:1040C0002DE9F04381B098461646814601F47F07FA
:1040D0008DB2541CD9F80000B7F5803F14BF816938
:1040E00041692940A94218D04169490519D4002CD9
:1040F000F0D0FDF78FFD1EB1A0EB0800B042E9D96A
:1041000000202021C9F8300089F83D1089F83E00D0
:10411000D9F8401041F0200116E0002001B0BDE8C0
:10412000F083016841F4007101606FF480614161C6
:1041300000202021C9F8300089F83D1089F83E00A0
:10414000D9F8401041F00401C9F8401089F83C004A
:10415000012001B0BDE8F08370B515460E46044657
:1041600020684169490613D44169C90612D4FDF794
:1041700051FD16B1401BB042F2D90020202120632E
:1041800084F83D1084F83E00206C40F020000CE0E4
:10419000002070BD6FF010014161002020212063DC
:1041A00084F83D1084F83E00206C2064002084F8E0
:1041B0003C00012070BD0000F0B581B004460068ED
:1041C0004069000624D415460E464F1C04E000BF8B
:1041D0002068406900061BD42046FFF703FEA0B903
:1041E000002FF5D0FDF716FD16B1401BB042EFD9F8
:1041F00000202021206384F83D1084F83E00216CCB
:1042000041F02001216484F83C00012001B0F0BDA0
:10421000002001B0F0BD000084B00020ADF80C001B
:104220000290ADF80400009002F0DCFD40F2B80806
:1042300040F28C099FED358A40F2B20740F2AC059E
:104240004EF6045AC2F20008C2F2000902AEC2F2EF
:1042500000076C46C2F20005CEF2000A4FF0805B08
:104260004046FCF715FB03204946FCF787FC98ED18
:10427000000A98ED011A20EE080A98ED022ABDEE18
:10428000C00A10EE100A21EE080AADF80800BDEED3
:10429000C00A10EE100A22EE080AADF80A00BDEEC0
:1042A000C00A10EE100A99ED000A99ED011A20EEED
:1042B000080AADF80C0099ED022ABDEEC00A10EE16
:1042C000100A21EE080AADF80000BDEEC00A10EE9B
:1042D000100A22EE080AADF80200BDEEC00A10EE88
:1042E000100AADF80400002020F00101725A615A52
:1042F0003A5229520230C0B20528F5D3CAF800B0AC
:10430000BFF34F8FBFF36F8FAAE700BF0000C84213
:1043100080B540F2C402C2F200021160FCF75EFDFB
:104320000C20FCF7EFF9BDE88040FCF75DBD000014
:10433000B0B584B040F2341001220024C2F2000073
:1043400042F200010125C0F60072C4F201010576B7
:1043500080F82040C0E90A240422CDE90244CDE9D6
:104360000044C26180F83050C0E90014C0E9024442
:10437000C0E90455FCF7A6FF90BB0C20CDE9000571
:1043800040F23410C2F2000069460294FCF704FFC8
:1043900030BB062000900220019040F23410C2F29F
:1043A00000006946FCF7F8FED0B907200090032012
:1043B000019040F23410C2F200006946FCF7ECFEB6
:1043C00070B90E2000900420019040F23410C2F227
:1043D00000006946FCF7E0FE002804BF04B0B0BD51
:1043E000FCF7A8FE80B540F27C1046F20041C2F214
:1043F0000000C4F200011022002380E80E0000F14A
:104400000C014FF4602C4FF4801E81E8085083614A
:104410008383FDF7EFF8002808BF80BDFCF78AFE14
:1044200081B00020009043F63000C4F20200016821
:1044300041F480010160006800F480000090009861
:1044400001B0704780B548F2340040F21011C0F658
:104450000000C2F20001FCF773FE40F29C41C2F280
:104460000001087080BD00002DE9F04F87B00024E6
:1044700043F63000CDE905440194C4F2020001681E
:1044800040F6000841F0040101600168C4F202082E
:1044900001F004010191019901940168A8F50066F9
:1044A00041F0800101600168002201F0800101916A
:1044B0000199019401684FF0380B41F0010101604E
:1044C000016801F00101019101990194016841F035
:1044D00002010160016801F002010191019901945A
:1044E000016841F0080101600068382100F008000F
:1044F000019001983046FDF787FB40464FF48061FC
:1045000000224FF4806AFDF77FFBA8F580694846DA
:1045100020210022FDF778FB4FF4005002904FF469
:10452000041002AFCDE9030440463946FDF796FA80
:10453000012530463946CDF808B0CDE9035405943D
:10454000FDF78CFA40463946CDE902A5CDE9044491
:10455000FDF784FA2020CDE9020548463946CDE929
:104560000444FDF77BFA07B0BDE8F08F80B540F258
:10457000042045F20041C2F20000C4F2000141F6FD
:10458000802200234FF4804CC0F2060280E80E0027
:10459000C0E9033CC0E90533C0E90733FDF75CFB24
:1045A000002808BF80BDFCF7C5FD000040F2582080
:1045B00042F60041C2F20000C4F2010100220323CE
:1045C000C0E90012C0E90222C0E9042283617047F9
:1045D00010B586B040F2DC2000210024C2F20000B9
:1045E000C4F2010141F26F73CDE90444CDE9024404
:1045F000CDE9004442F6DF6280E81600C0E90334EA
:10460000C0E90544FFF79EFAB8BB40F2DC20C2F2D5
:10461000000004A9CDE90444FEF774FF68BB022042
:104620000090012001900020CDE9020040F2DC2042
:10463000C2F2000069460022FFF738FAE8B940F2FA
:10464000DC20C2F2000069460422FFF72FFAA0B96D
:1046500040F2DC20C2F2000069460822FFF726FA89
:1046600058B940F2DC20C2F2000069460C22FFF784
:104670001DFA002804BF06B010BDFCF75BFD00006A
:1046800010B58CB040F224300024C2F200004FF08C
:104690008041C0E9001401214FF0FF32CDE903143D
:1046A000CDE90514CDE90744CDE9091403A9CDE905
:1046B0000044C0E90242046184610B94FFF706F8EC
:1046C00060B940F22430C2F200006946CDE90044EE
:1046D000FEF718FF002804BF0CB010BDFCF72AFD40
:1046E000FEE70000FEE7000000F0070080F007038F
:1046F000042B28BF04234FF0FF3C03380CFA03F3CC
:1047000038BF0020994381400CFA00F022EA0000F3
:104710000843704700000000000000000000000097
:10472000EFF30980BFF36F8F154B1A681EF0100F5F
:1047300008BF20ED108A20E9F04F10602DE9090034
:104740004FF0500080F31188BFF34F8FBFF36F8F8E
:1047500001F0FCFE4FF0000080F31188BDE8090075
:1047600019680868B0E8F04F1EF0100F08BFB0ECF1
:10477000108A80F30988BFF36F8F704700BF00BFB6
:10478000BC03002080B5024691E809505062936254
:1047900008694EEA0C0318434969D36A084323F0B9
:1047A000F70101430020D16280BD00000069C0B262
:1047B00070470000006800F003007047084440693B
:1047C0007047000010B58446DDE9024011431943EB
:1047D0002143DDF810E00843DCF8041047F6FF62DF
:1047E00040EA0E00914301430020CCF8041010BDB4
:1047F0000146032200200A6070470000D0F88000C4
:104800007047000080B5D1E900C30246D1E9020E2D
:10481000C2F808C01843096940EA0E000843D1688D
:1048200040F6FF73994301430020D16080BD000032
:10483000096802460020C2F88010704710B586B0A3
:1048400004463720019102904020039000200490FC
:104850004FF48060059001A92046FFF7D3FF204662
:10486000372141F2883206B0BDE8104000F084B92B
:1048700010B586B0044641F0004040F4801001902D
:104880002920029040200390002004904FF4806083
:10489000059001A92046FFF7B5FF204606B0BDE808
:1048A000104000F043BA000010B586B00446102056
:1048B0000191029040200390002004904FF480600A
:1048C000059001A92046FFF79DFF2046102141F2E7
:1048D000883206B0BDE8104000F04EB910B586B081
:1048E00004460020CDE90300CDE901004FF48060CB
:1048F000059001A92046FFF785FF204606B0BDE8D8
:10490000104000F01DB9000010B586B004464FF409
:10491000D570019008200290402003900020049060
:104920004FF48060059001A92046FFF76BFF2046F9
:1049300006B0BDE8104000F073BA000010B586B0B4
:104940000446122001910290402003900020049020
:104950004FF48060059001A92046FFF753FF2046E1
:10496000122141F2883206B0BDE8104000F004B9CF
:1049700010B586B0044611200191029040200390AA
:10498000002004904FF48060059001A92046FFF7B5
:1049900039FF2046112141F2883206B0BDE81040AF
:1049A00000F0EAB810B586B00446072001920290E4
:1049B00040200390002004904FF48060059001A9EE
:1049C0002046FFF71FFF2046072141F2883206B03C
:1049D000BDE8104000F0D0B810B586B00446002005
:1049E000022101900291C021CDE903104FF48060B3
:1049F000059001A92046FFF705FF204606B0BDE857
:104A0000104000F065B9000010B586B004460920DA
:104A100001910290C0200390002004904FF4806028
:104A2000059001A92046FFF7EDFE204606B0BDE83F
:104A3000104000F04DB9000010B586B004460D20BE
:104A40000191029040200390002004904FF4806078
:104A5000059001A92046FFF7D5FE20460D2141F221
:104A6000883206B0BDE8104000F086B8B0B586B018
:104A70000C46054600200321019002914021CDE91A
:104A800003104FF48060059001A92846FFF7BAFE95
:104A900028460321224606B0BDE8B04000F06CB9BC
:104AA00010B586B0044600200C21019002914021EF
:104AB000CDE903104FF48060059001A92046FFF76F
:104AC000A1FE4EF20012C0F2F55220460C2106B0B3
:104AD000BDE8104000F050B810B586B0044619206B
:104AE0000191029040200390002004904FF48060D8
:104AF000059001A92046FFF785FE2046192141F2C5
:104B0000883206B0BDE8104000F036B810B586B067
:104B10000446182001910290402003900020049048
:104B20004FF48060059001A92046FFF76BFE2046F8
:104B3000182141F2883206B0BDE8104000F01CB8E0
:104B400040F20401C2F20001096844F6D352C1F2F6
:104B50006202A1FB0212510A41F288325143C94359
:104B6000013124BF4FF000407047426B1206F7D569
:104B7000C52181630020704770B540F20403C2F282
:104B800000031B6844F6D355C1F26205A3FB05344C
:104B90000546600A50430E46013000BF013848D038
:104BA000696B11F0450FF9D011F40061F6D1686B13
:104BB000400742D4686BC00741D1C520A86328468E
:104BC000FFF7F4FDB0423ED1284600210024FFF754
:104BD000F5FD4EF20801CFF6FF51084227D000281C
:104BE00034D4410036D4810037D4C10038D4010117
:104BF0003AD441013CD4C1013ED4010240D4410227
:104C000042D4810244D4C10246D4410348D4810332
:104C10004AD4C1034CD401044ED4410450D481047D
:104C200052D44FF40004000758BF4FF4803420469C
:104C300070BD4FF00044204670BD042400E0012404
:104C40002046AC6370BD0124204670BD4FF0007457
:104C5000204670BD4024204670BD8024204670BD93
:104C60004FF48074204670BD4FF40074204670BD30
:104C70004FF48064204670BD4FF40064204670BD40
:104C80004FF48054204670BD4FF40054204670BD50
:104C90004FF48044204670BD4FF40044204670BD60
:104CA0004FF40034204670BD4FF48024204670BD80
:104CB0004FF40024204670BD4FF48014204670BD90
:104CC0004FF40014204670BD4FF48004204670BDA0
:104CD00040F20401C2F20001096844F6D352C1F265
:104CE0006202A1FB0212510A41F288325143C943C8
:104CF000013111D2426B12F0450FF9D012F400626B
:104D0000F6D1416B49070BD4416BC9070AD1C521C4
:104D100081630021084670474FF000410846704704
:104D2000042100E0012181630846704740F204013C
:104D3000C2F20001096844F6D352C1F26202A1FB3B
:104D40000212510A41F288325143C94301310FD254
:104D5000426B12F0450FF9D012F40062F6D1416BAC
:104D6000042211F0040108BFC5228263084670477F
:104D70004FF0004108467047F0B581B040F204039F
:104D8000C2F200031B6844F6D356C1F26206A3FBCD
:104D900006340E460546600A41F2883148431746FC
:104DA000C04300BF013024D2696B11F0450FF9D028
:104DB00011F40061F6D1686B40071ED4686BC00720
:104DC0001DD12846FFF7F2FCB0421CD1C520A863D4
:104DD00028460021FFF7F2FC10F4604F16D0410482
:104DE00019D400044FF4805058BF4FF4803001B004
:104DF000F0BD4FF0004001B0F0BD042000E0012004
:104E0000A86301B0F0BD012001B0F0BD000C3880F6
:104E1000002001B0F0BD4FF4005001B0F0BD000023
:104E200040F20401C2F20001096844F6D352C1F213
:104E30006202A1FB0212510A41F288325143C94376
:104E4000013114D2426B12F0450FF9D012F4006216
:104E5000F6D1416B49070ED4416BC9070DD1416BA7
:104E6000490644BF402181630021084670474FF046
:104E7000004108467047042100E001218163084693
:104E80007047000010B540F20004C2F20004012097
:104E90002070FCF711F808B1207810BD207800F0E0
:104EA000FE002070207810BD10B590B00446006858
:104EB0000121ADF81210FFF77DFC90B1606C032862
:104EC00013D120680421FFF779FC000DE06405A9E7
:104ED0002046FDF77BFF002850D04FF0805010B0E7
:104EE00010BD4FF0806010B010BD2068FFF774FD5A
:104EF00000284AD120680021FFF760FC2168606724
:104F000008460421FFF75AFC2168A06708460821DB
:104F1000FFF754FC2168E06708460C21FFF74EFCC0
:104F2000616CC4F880000329CBD020680DF1120118
:104F3000FFF79CFD48BB606C0328C2D0BDF812107F
:104F4000216520680904FFF75FFDF0B920680021A2
:104F5000FFF734FC2168606608460421FFF72EFC49
:104F60002168A06608460821FFF728FC2168E06652
:104F700008460C21FFF722FC2067A2E7216D20687C
:104F80000A040023FFF70EFD08B110B010BD94E82D
:104F90000F50A469CDE900CE0294FFF713FC002066
:104FA00010B010BDF0B581B004460020009020681C
:104FB000FFF794FC08B101B0F0BD2068FFF7A4FC36
:104FC00050B120680021A164FFF788FC0028F2D1CD
:104FD000A06C012802D00AE00120A0642068002112
:104FE000FFF72CFC18B14FF0805001B0F0BD0098D5
:104FF0004FF6FE76B04221D80025CCF210154FF6C0
:10500000FF7700BF20680021FFF718FC0028D2D1ED
:1050100020682946FFF72CFC0028E4D120680021F5
:10502000FFF7CCFB0099002801F1010100910099E4
:1050300001D4B942E6D3C0F3807000E000200099AB
:10504000B14203D94FF0807001B0F0BD6064002020
:1050500001B0F0BD70B551B10C46016D0646006857
:105060000904FFF7E9FC054628B1284670BD4FF05A
:105070000065284670BD306800210025FFF79EFBC3
:105080002060284670BD000010B540F20004C2F256
:10509000000401202070FBF71BFF08B1207810BD31
:1050A000FFF7F0FE2070207810BD000010B588B02A
:1050B00040F20000C2F200000078C0070CD10846A0
:1050C00003290CD81446DFE800F00B020D136846E4
:1050D000FBF7EAFE069810E0032008B010BD04209C
:1050E00008B010BD6846FBF7DFFE0798208005E09A
:1050F0006846FBF7D9FE0798400A2060002008B0F8
:1051000010BD000080B5084611461A464FF0FF3327
:10511000FBF7F6FE00281CBF012080BDFBF7CCFE8C
:105120000028FBD1002080BDFFF7ACBE80B508464B
:1051300011461A464FF0FF33FBF7F6FE00281CBF5E
:10514000012080BDFBF7B8FE0028FBD1002080BD08
:10515000074B19680868B0E8F04F80F30988BFF37F
:105160006F8F4FF0000080F31188704700BF00BFC1
:10517000BC03002080B54FF0500080F31188BFF3CE
:105180006F8FBFF34F8F01F033FE30B14EF60450F6
:10519000CEF200004FF080510160002080F31188B2
:1051A00080BD0000B0B594B0002443F640000C94DC
:1051B000CDE90A44CDE908440694CDE90444CDE99B
:1051C00002440194C4F202000168012241F08051BE
:1051D00001600068022500F080500190019847F2BC
:1051E00000000194C4F20000016862F38F31016095
:1051F000006800F4404001900198102007950A9241
:105200000B900820CDE90D540F904820CDE91005F2
:105210000320CDE9120507A8FDF70CFC78B90F2093
:10522000CDE902054FF480500494CDE9050002A8B1
:105230000221FDF7B3FA002804BF14B0B0BDFBF79C
:1052400079FF00004EF68850CEF20000016841F46C
:10525000700101604FF0006140F8801C7047000051
:1052600040F2DC20C2F20000FEF7DABC40F26C3003
:10527000C2F20000FEF7D4BC10B540F6FF3E036852
:10528000C4F2000E40F2004C7045C4F2010C0FDC79
:10529000B0F1804F19D040F20042C4F200029042B7
:1052A00013D040F60002C4F2000290420DD010E08C
:1052B00040F60042C4F20002904206D0604504D09D
:1052C0000022C4F20102904203D14A6823F0700325
:1052D000134341F6FF72C4F2000290420DDC7045A8
:1052E0001FDCB0F1804F41D040F20042C4F2000216
:1052F00090423BD040F6000221E043F6FF72C4F238
:105300000102904220DC42F20002C4F2000290420C
:105310002CD00022C4F20102904227D0604525D053
:1053200028E040F60042C4F2000290421ED041F64E
:105330000002C4F20002904218D041F60042C4F2CA
:105340000002904212D015E044F20002C4F20102C1
:1053500090420BD044F60002C4F20102904205D004
:1053600044F20042C4F20102904203D1CA6823F41D
:105370004073134323F080024B69D1F800E08C683E
:105380001A430260C46240F48062C0F828E06245BB
:1053900004BF096901630121416110BD10B5D0F856
:1053A00020C041F2FF742CF0010CC0F820C0D0F8EE
:1053B00018E0D0F820C0C4F20004A0420BDC40F298
:1053C000FF74C4F20004A04213DCB0F1804F29D076
:1053D00040F2004415E040F2FF34C4F20104A04260
:1053E00014DC41F60004C4F20004A0421AD00024E8
:1053F00014E040F60004C4F20004A04212D040F6CB
:105400000044C4F20004A0420CD018E044F20004AE
:10541000C4F20104A04205D040F20044C4F20104E9
:10542000A0420CD12EF00304224363F307122CF0A8
:105430000A0301F00A0119448261016210BD4EF0B5
:105440000102F2E710B5D0F820C012022CF0100CC7
:10545000C0F820C0D0F818C0D0F820E04FF2FF0408
:10546000A2432CF4734C63F30F322EF0A00301F02F
:105470000A0142EA0C0243EA01118261016210BD95
:1054800080B5D0F820C063F307122CF4807CC0F8FC
:1054900020C0D0F81CC0D0F820E02CF0F30C2EF483
:1054A000206301F00A0142EA0C0243EA0121C261D1
:1054B000016280BD10B5D0F820C012022CF4805CCF
:1054C000C0F820C0D0F81CC0D0F820E04FF2FF0494
:1054D000A2432CF4734C63F30F322EF4204301F0FB
:1054E0000A0142EA0C0243EA0131C261016210BDC5
:1054F00040F2341040F27801C2F20000C2F2000122
:105500000422FBF777BF000070470000FEE70000B1
:10551000002848BF704700F01F01012202FA01F184
:105520004EF200124009CEF2000242F820107047FD
:105530004EF60C50CEF200000068C0F30220704717
:105540004EF6145300F00F02CEF2000309011A4484
:1055500000F16043B0F1FF3FC8BF03F56442117032
:10556000704700004EF60C51CEF200010A684FF66B
:10557000FF031A4060F30A2242F0806040F0FD70A1
:105580000860704782B0FCF743FEFFF70BFEFEF7A2
:105590006BFFFEF745FFFEF7CBFEFEF723FFFFF79D
:1055A00017F8FFF76DF8FEF7E1FFFEF7FFFFFEF7D4
:1055B00049FF40F27C1440F20420C2F20004C2F21F
:1055C00000002146FEF7A4FEFFF792FF2046FFF7FA
:1055D0009BFF2046FBF748FD40F2F000C2F20000BE
:1055E000019044F219200125C0F600001BA1802281
:1055F0000123009501F018FB40F2A044C2F2000420
:105600000128206015D140F2980C40F65570C2F286
:10561000000CC0F6000014A1802201230095CDF8F3
:1056200004C001F001FB012820600CD100F03AFF1A
:10563000FEE74FF0500080F31188BFF36F8FBFF388
:105640004F8F00BFFEE74FF0500080F31188BFF38B
:105650006F8FBFF34F8F00BFFEE700BF494D555F0F
:105660005441534B0000000043414E5F5441534BA3
:1056700000000000F0B581B00D4644F6C01140F2C4
:10568000BC36C2F20001C2F200060F68316804465F
:10569000081D00F055FD68B1601C1AD1CDB130680D
:1056A000011D44F69810C2F2000001B0BDE8F040C0
:1056B00000F088BD306844F6C002C06AC2F2000241
:1056C0000121136801FA00F023EA00001060601C59
:1056D000E4D03068E41944600BD340F2CC30C2F21D
:1056E000000000683168043101B0BDE8F04000F00E
:1056F0004BBD40F2C430C2F2000000683168043192
:1057000000F042FD44F62410C2F2000001688C4211
:1057100038BF046001B0F0BD70B5044600F06AFD0A
:1057200044F6B000C2F20000016840F2BC3501311D
:105730000160C2F20005296844F68C16C2F2000628
:1057400041B1306860B92868E16AC06A884298BF90
:105750002C6005E02C600068012801D100F0ACF954
:1057600044F6BC00C2F20000016844F6C0020131F8
:1057700001606164E06AC2F20002012113688140A5
:105780001943116040F2D43100EB8000C2F20001F5
:1057900001EB8000211D00F015FD00F04FFD306889
:1057A00080B12868E16AC06A884228BF70BD4EF6A1
:1057B0000450CEF200004FF080510160BFF34F8FD4
:1057C000BFF36F8F70BD000070B500F013FD44F69D
:1057D000C416C2F20006306808BB44F6C404C2F224
:1057E0000004204600F0C0FC44F6D805C2F20005D3
:1057F000284600F0B9FC40F2C030C2F2000004605C
:1058000040F2D030C2F2000005600A2010210022D0
:1058100000F070FF306010B103A100F0B9FDBDE8E9
:10582000704000F00BBD00BF546D725100000000CD
:10583000F0B581B044F6B405C2F200052868E0B1C5
:1058400044F6AC1644F6B007C2F20006C2F20007F6
:1058500000F0D0FCF068C468201D00F071FC3868CE
:105860000138386028680138286000F0E7FC2046DD
:1058700000F056F828680028EAD101B0F0BD000019
:10588000026C002A08BF7047D0E902C31344C3600A
:10589000634524BF0368C360C36808461946FAF726
:1058A00079BD000070B5866B036C0446E3B1154604
:1058B0001AB3E0681A46FAF76DFDE168206C2268B9
:1058C000091A9142E16003D2A16840420844E060B5
:1058D000A81EB0FA80F040093146002E18BF012101
:1058E0000840361A002516E02068002598B9A068FF
:1058F00001F030FBA56005460DE060681A46FAF736
:1059000049FD216CD4E90102002508446060904201
:1059100024BF20686060711C2846A16370BD000030
:1059200010B50446006B00F0A1FC2046BDE8104015
:1059300000F09CBC40F2C031C2F2000109680A6864
:10594000B2FA82F35B090360002A0EBF0020C86828
:105950000068704740F2A440C2F20000C21D22F06D
:10596000070210F0070CA0EB020318BF104644F624
:105970009012C2F200020021C2E900014FF48842F5
:10598000BCF1000F18BF03F588420244083A40F208
:10599000C83322F00702C2F200031A60C2E9001104
:1059A000111A1A68C0E9002144F62010C2F2000062
:1059B000016044F61810C2F20000016044F6EC00E9
:1059C000C2F20000012101707047000040F2D4349F
:1059D0004EF60455C2F20004CEF200054FF0805698
:1059E000FFF726FF20680228FAD32E60BFF34F8FFF
:1059F000BFF36F8FF4E70000B0B5049D002914BF1A
:105A00002A602D60C5E90F01284601211C4600F0DF
:105A100093FE85F84C40B0BD2DE9F0470A9C8246C4
:105A2000206B16460F46DDE908599100A5229846DD
:105A3000FAF7F5FC206B00EB8600A0F1040020F0E3
:105A400007068FB1781E04F13301012210F8013FDF
:105A500001F8013F03781BB1102A02F10102F5D3CE
:105A6000002084F8430002E0002084F8340000277E
:105A7000201D092D28BF0925E562C4E9135700F050
:105A80007FFB04F1180000F07BFBC5F10A002461E4
:105A9000A06130465146424664626765A76584F856
:105AA0005C7000F039FBB9F1000F206018BFC9F835
:105AB0000040BDE8F0870000B0B540F2D4350024C6
:105AC000C2F20005281900F04FFB1434C82CF9D19C
:105AD00044F6F004C2F20004204600F045FB44F610
